:100000000C9434000C943E000C943E000C943E0082
:100010000C943E000C943E000C943E000C943E0068
:100020000C943E000C943E000C943E000C943E0058
:100030000C943E000C943E000C943E000C943E0048
:100040000C943E000C943E000C943E000C943E0038
:100050000C943E000C943E000C943E000C943E0028
:100060000C943E000C943E0011241FBECFEFD8E04C
:10007000DEBFCDBF0E945E000C948B000C9400008C
:10008000E4E8F0E0118210828081918180329E4408
:1000900050F4808191810196918380838081918148
:1000A00080329E44B0F3089583EA84BD8AE085BD22
:1000B00093E29093B0008093B100089588E68AB9E6
:1000C0000E94540004E110E00F2EF4E1DF2EF02D29
:1000D000C4EBD0E00F2EF4E1EF2EF12CF02D05C093
:1000E00007BD0E9440000F5F1F4F063E1105C4F37D
:1000F00017BC1D2D18BD0E9440001F5F163ED1F792
:1001000018BC1D2D18830E9440001F5F163ED1F7BA
:0A01100018828701EACFF894FFCFB0
:00000001FF
