:100000000C9434000C9479000C943E000C943E0047
:100010000C943E000C943E000C943E000C943E0068
:100020000C943E000C943E000C943E000C943E0058
:100030000C943E000C943E000C943E000C943E0048
:100040000C943E000C943E000C943E000C943E0038
:100050000C943E000C943E000C943E000C943E0028
:100060000C943E000C943E0011241FBECFEFD8E04C
:10007000DEBFCDBF0E9450000C9499000C9400008C
:100080001092800083E0809381008EEE95E890933B
:10009000850080938400B09BFECF81E086BB0895ED
:1000A0008FEF84B987B980E285B981E08DBBE9E63D
:1000B000F0E080818860808316BC7894D0E2CDEC3B
:1000C00010E10E944000D5B986B58F5F86BD86B528
:1000D00088B986B58C9F912D112496959695292FD8
:1000E000220F220F920F8913ECCF85B1812785B99A
:1000F000E8CF1F920F920FB60F9211248F939F9308
:10010000EF93FF93E2EBF0E080818F5F808380814B
:10011000823031F495B180E1892785B91092B2001F
:10012000FF91EF919F918F910F900FBE0F901F90B5
:060130001895F894FFCFC2
:00000001FF
