:100000000C9434000C943E000C943E000C943E0082
:100010000C943E000C943E000C943E000C943E0068
:100020000C943E000C943E000C943E000C947A001C
:100030000C943E000C943E000C943E000C943E0048
:100040000C943E000C943E000C943E000C943E0038
:100050000C943E000C943E000C943E000C943E0028
:100060000C943E000C943E0011241FBECFEFD8E04C
:10007000DEBFCDBF0E945E000C94A4000C94000073
:10008000EAE7F0E0808180648083808184FFFDCF97
:10009000089588E18093C1008EE08093C20083E3DD
:1000A00090E09093C5008093C4000895E0ECF0E0E8
:1000B000908195FFFDCF8093C600089517B88FEF0C
:1000C0008AB980E880937A0010927C000E944900EF
:1000D000109280008DE08093810084E89EE19093EF
:1000E000890080938800EFE6F0E080818260808361
:1000F0007894FFCF1F920F920FB60F9211242F9377
:100100003F934F935F936F937F938F939F93AF939F
:10011000BF93EF93FF930E944000809178009091ED
:1001200079000E945600FF91EF91BF91AF919F918E
:100130008F917F916F915F914F913F912F910F9090
:0C0140000FBE0F901F901895F894FFCF91
:00000001FF
