:100000000C9434000C943E000C943E000C943E0082
:100010000C943E000C943E000C943E000C943E0068
:100020000C943E000C943E000C943E000C943E0058
:100030000C943E000C943E000C943E000C943E0048
:100040000C943E000C943E000C943E000C943E0038
:100050000C943E000C943E000C943E000C943E0028
:100060000C943E000C943E0011241FBECFEFD8E04C
:10007000DEBFCDBF0E9451000C9430020C940000F2
:1000800082E880937A000895EAE7F0E08081806456
:100090008083808184FFFDCF0895B19BFECFB19A0C
:1000A00008958FEF84B917B88DE0809381000E9486
:1000B0004000C8E7D0E00F2EFAE5CF2ED12CF02D6E
:1000C0000F2EF4EFEF2EFF24F394F02D08E810E04C
:1000D0000F2EF6E68F2EF02D0F2EF3E39F2EF02D30
:1000E0000F2EF9E9AF2EF02D0F2EFCECBF2EF02DC8
:1000F0000E944400888199818A35910510F4D98243
:10010000C88288819981853F914010F0F982E88208
:10011000688179816055710980E090E00E943F011B
:1001200023E333E343E750E40E94CD0120E030E0D5
:100130004CE853E40E94AF000E941301F801718360
:10014000608385B80E944D0095B80E944D00A5B807
:100150000E944D00B5B80E944D00CACF5058BB2731
:10016000AA270ED0E0C0D1D030F0D6D020F031F4A4
:100170009F3F11F41EF4C6C00EF4E095E7FBBCC02F
:10018000E92FE2D080F3BA17620773078407950757
:1001900018F071F49EF5FAC00EF4E0950B2EBA2F0C
:1001A000A02D0B01B90190010C01CA01A00111247D
:1001B000FF27591B99F0593F50F4503E68F11A1629
:1001C000F040A22F232F342F4427585FF3CF4695BA
:1001D00037952795A795F0405395C9F77EF41F16DC
:1001E000BA0B620B730B840BBAF09150A1F0FF0FA6
:1001F000BB1F661F771F881FC2F70EC0BA0F621F92
:10020000731F841F48F4879577956795B795F79581
:100210009E3F08F0B3CF9395880F08F09927EE0F13
:1002200097958795089598D088F09F5790F0B92FAB
:100230009927B751A0F0D1F0660F771F881F991F3B
:100240001AF0BA95C9F712C0B13081F09FD0B1E071
:1002500008959CC0672F782F8827B85F39F0B93F81
:10026000CCF3869577956795B395D9F73EF490953D
:100270008095709561957F4F8F4F9F4F0895E894BB
:1002800009C097FB3EF490958095709561957F4FDE
:100290008F4F9F4F9923A9F0F92F96E9BB2793958C
:1002A000F695879577956795B795F111F8CFFAF49C
:1002B000BB0F11F460FF1BC06F5F7F4F8F4F9F4FCD
:1002C00016C0882311F096E911C0772321F09EE82B
:1002D000872F762F05C0662371F096E8862F70E091
:1002E00060E02AF09A95660F771F881FDAF7880F6B
:1002F0009695879597F9089597F99F6780E870E03C
:1003000060E008959FEF80EC089500240A9416168B
:10031000170618060906089500240A9412161306F3
:10032000140605060895092E0394000C11F4882381
:1003300052F0BB0F40F4BF2B11F460FF04C06F5F9D
:100340007F4F8F4F9F4F089557FD9058440F551F73
:1003500059F05F3F71F04795880F97FB991F61F047
:100360009F3F79F087950895121613061406551FBE
:10037000F2CF4695F1DF08C0161617061806991F2A
:10038000F1CF86957105610508940895E894BB271F
:1003900066277727CB0197F908950BD0C4CFB5DF37
:1003A00028F0BADF18F0952309F0A6CFABCF1124BF
:1003B000EECFCADFA0F3959FD1F3950F50E0551F04
:1003C000629FF001729FBB27F00DB11D639FAA27AA
:1003D000F00DB11DAA1F649F6627B00DA11D661FF9
:1003E000829F2227B00DA11D621F739FB00DA11D1A
:1003F000621F839FA00D611D221F749F3327A00DD4
:10040000611D231F849F600D211D822F762F6A2F6F
:1004100011249F5750408AF0E1F088234AF0EE0FF4
:10042000FF1FBB1F661F771F881F91505040A9F701
:100430009E3F510570F060CFAACF5F3FECF3983E2E
:10044000DCF3869577956795B795F795E7959F5F68
:10045000C1F7FE2B880F911D9695879597F9089502
:04046000F894FFCF3E
:00000001FF
